:100000000C945E000C9486000C9486000C94860080
:100010000C9486000C9486000C9486000C94860048
:100020000C9486000C9486000C9486000C94860038
:100030000C9486000C9486000C9486000C94860028
:100040000C942C040C9486000C9486000C9486006E
:100050000C9486000C9486000C9486000C94860008
:100060000C9486000C9486000000000024002700F9
:100070002A0000000000250028002B0004040404CE
:100080000404040402020202020203030303030342
:10009000010204081020408001020408102001021F
:1000A00004081020000000080002010000030407FB
:1000B00000000000000000009904920411241FBEFB
:1000C000CFEFD8E0DEBFCDBF21E0A6E0B1E001C0B8
:1000D0001D92A932B207E1F711E0A0E0B1E0E8E635
:1000E000FCE002C005900D92A630B107D9F710E0F0
:1000F000CDE5D0E004C02197FE010E94F504CC3587
:10010000D107C9F70E9487040C9427060C940000BD
:100110008330B1F060F08730E9F0883009F1843045
:1001200021F5E0E8F0E080818F7D808308958130C3
:1001300069F0823021F484B58F7D84BD08950895DF
:10014000E0E8F0E080818F778083089584B58F7731
:1001500084BD0895E0EBF0E080818F77808308957F
:10016000E0EBF0E080818F7D808308951F93CF9333
:10017000DF93282F30E0F901EC55FF4F8491F9010E
:10018000E057FF4F1491F901E458FF4FC491CC237D
:10019000A9F0D62F811116C0EC2FF0E0EE0FFF1F53
:1001A000EE58FF4FA591B4918FB7F894D1110DC0BF
:1001B0009C91E12FE095E923EC938FBFDF91CF91E4
:1001C0001F9108950E948800E7CFEC91E12BEC93FA
:1001D000F4CFCF93DF9390E0FC01E057FF4F2491E1
:1001E00084589F4FFC018491882319F190E0880F77
:1001F000991FFC01E859FF4FA591B491FC01EE58FD
:10020000FF4FC591D491662349F06230A9F08FB7B2
:10021000F894EC91E22BEC938FBF0BC09FB7F8944E
:100220008C91E22FE0958E238C938881E823E883DC
:100230009FBFDF91CF9108959FB7F8943C91822F93
:10024000809583238C93E881E22BE8839FBFF1CFD5
:10025000789484B5826084BD84B5816084BD85B5A1
:10026000826085BD85B5816085BDEEE6F0E0808168
:1002700081608083E1E8F0E0108280818260808389
:10028000808181608083E0E8F0E08081816080830C
:10029000E1EBF0E0808184608083E0EBF0E080813E
:1002A00081608083EAE7F0E08081846080838081E0
:1002B0008260808380818160808380818068808388
:1002C0001092C10008953FB7F89480912101909158
:1002D0002201A0912301B091240126B5A89B05C05D
:1002E0002F3F19F00196A11DB11D3FBFBA2FA92FB5
:1002F000982F8827BC01CD01620F711D811D911DB2
:10030000660F771F881F991F660F771F881F991F19
:1003100008950895FF920F931F93CF93DF938C015D
:10032000FF24F394F60EFC0120852F1589F1C18579
:10033000D2852150B9F06F3F51F08F2D90E0982F6A
:1003400088270197622F70E00E94A0040DC030E062
:1003500050E040E06FEF7FEF80E090E00E94B40457
:10036000B90102C070E060E090E080E0F8014481F3
:1003700055818417950758F4FE013191369FA001ED
:10038000379F500D112458830196EF01EFCFF0866F
:10039000DF91CF911F910F91FF9008950F93FC0172
:1003A0008281938168177907A8F58085882399F061
:1003B00090E0489FD001499FB00D11244B2F289FFA
:1003C000D001299FB00D11242B2F089FD001099F28
:1003D000B00D11240B2FA6858385A817E9F0818520
:1003E0009285660F771F660F771F680F791FA60F1C
:1003F000B72FB11D1C92A385A60FB72FB11D4C932B
:10040000A485A60FB72FB11D2C938585680F711D8C
:10041000FB0100830F91089581859285DB01AA0F6E
:10042000BB1F6A0F7B1F680F791FE5CF0F931F93C8
:10043000CF93DF93EC01162F072F8981882321F0BA
:100440008E819F819923F4F41E830F83898181110A
:100450001DC0812F902FFC01E458FF4FE491F0E084
:10046000EE0FFF1FEE58FF4F259134913C8B2B8BE5
:10047000FC01E057FF4FE491ED8BDF91CF911F918D
:100480000F91089560E00E94E900DECF61E0812FC6
:100490000E94E90060E0812F0E94B600DACFCF927F
:1004A000DF92EF92FF920F931F93CF93DF93CDB71D
:1004B000DEB729970FB6F894DEBF0FBECDBF8C0113
:1004C000DC0119968D919C91892B79F471C0F8010A
:1004D000C784D088E188F2886C197D098E099F094C
:1004E0006C3271408105910588F40E946301F80126
:1004F000C784D088E188F2886C157D058E059F053C
:1005000030F76787708B818B928BE1CFF894D8019D
:1005100014968D919C9115979A8389831996ED91E4
:10052000FC91DF01119680818B83F8018081882303
:1005300009F44DC0E388F488F7019081F8018589BA
:10054000982B9C83F7019081809589238D838D81E1
:10055000898788E088875C816D814B813885298512
:1005600089819A81508347FD252F3A952083262F34
:1005700039F0441F00C000006083000000C0F2CFCB
:1005800038E04D9160830000019761F7D8015496DF
:10059000FC93EE9353974B83388729879A838983FB
:1005A00078940E946301F8016787708B818B928B2E
:1005B00029960FB6F894DEBF0FBECDBFDF91CF9165
:1005C0001F910F91FF90EF90DF90CF900895E388F7
:1005D000F488F7019081F8018589982B9C83F701B5
:1005E0009081809589238D838D818F8388E08E8390
:1005F0005C816D814B813E812F8189819A815083FD
:1006000047FD252F00C000C0208300C000C000C0EF
:1006100000C000C060830000262F3A9541F0441FBF
:10062000000000C000C000C000C000C0E8CF38E03B
:100630004D9100C0608300C0019709F7D80154961E
:10064000FC93EE9353974B833E832F839A83898346
:10065000A7CFCF93DF93EC018E819F8199233CF04C
:1006600061E00E94E90060E08E810E94B60081E0B6
:100670008983DF91CF9108950F9386E091E00E94E6
:10068000290362E386E091E00E948A0100E024E60B
:100690004FEF70E060E086E091E00E94CE010FEF46
:1006A00020E04FEF61E070E086E091E00E94CE0133
:1006B00086E091E00E944F020F9108950895EF9215
:1006C000FF920F931F93CF93DF93EC017B018985FA
:1006D0009A850E9497059E858B859817E9F084E09E
:1006E00090E08E9D80018F9D100D9E9D100D112418
:1006F0001D830C83C8010E94FB049A878987009799
:1007000071F41D821C821B821A82DF91CF911F918E
:100710000F91FF90EF90089583E090E0E2CFA80161
:1007200070E060E00E942006FB82EA82EECFFC01CE
:100730009685838531E0981330E0CB010024880F43
:10074000991F001C880F991F001C892F902D282F9E
:1007500023702687CB01929582958F7089279F7091
:10076000892783708387AB015695479556954795A2
:1007700043704487962F9370958791E06F3F710582
:1007800011F008F090E0908341855285452B51F09F
:1007900091E0281390E0391729F0CF01628173812D
:1007A0000E945F030895EF92FF920F931F93CF93E0
:1007B000DF93EC017B018A01198218861A8619865B
:1007C0001F86188A198A1A8AB9010E949703B701ED
:1007D000CE010E945F03B801CE010E941602DF9194
:1007E000CF911F910F91FF90EF900895CF93DF93DA
:1007F000EC0189859A850E9497058E819F819923B6
:100800001CF060E00E94E900DF91CF9108950F9302
:100810001F93CF93DF93EC018B01019751F0CD2B08
:1008200019F40F3F1F4F99F0DF91CF911F910F9156
:1008300008956F3F7F4F99F722E530E046E050E0A2
:1008400068E070E086E091E00E94D303E8CF86E0A4
:1008500091E00E94F603E8CF1F920F920FB60F921D
:1008600011240F931F932F933F934F935F936F9395
:100870007F938F939F93AF93BF9300911D0110912E
:100880001E0120911F013091200190911C01B9019E
:10089000A8014F5F5F4F6F4F7F4F83E0890F8D3708
:1008A00040F086E8890FB901A8014E5F5F4F6F4F96
:1008B0007F4F80931C0140931D0150931E01609354
:1008C0001F01709320018091210190912201A0913C
:1008D0002301B09124010196A11DB11D8093210136
:1008E00090932201A0932301B0932401BF91AF9173
:1008F0009F918F917F916F915F914F913F912F9138
:100900001F910F910F900FBE0F901F9018950E948E
:1009100028010E943C0380E090E0892BD1F30E94E3
:100920000000F7CF6FEF7FEF90E080E00E940704B8
:1009300008956FEF7FEF81E090E00E940704089533
:10094000AA1BBB1B51E107C0AA1FBB1FA617B707F5
:1009500010F0A61BB70B881F991F5A95A9F7809511
:100960009095BC01CD010895052E97FB1EF40094CF
:100970000E94CB0457FD07D00E94D30407FC03D08C
:100980004EF40C94CB0450954095309521953F4FF3
:100990004F4F5F4F089590958095709561957F4F6B
:1009A0008F4F9F4F0895A1E21A2EAA1BBB1BFD017A
:1009B0000DC0AA1FBB1FEE1FFF1FA217B307E4073E
:1009C000F50720F0A21BB30BE40BF50B661F771F96
:1009D000881F991F1A9469F7609570958095909576
:1009E0009B01AC01BD01CF010895EE0FFF1F0590E3
:1009F000F491E02D09940F931F93CF93DF938230EE
:100A0000910510F482E090E0E0912701F091280137
:100A100030E020E0B0E0A0E0309799F421153105F6
:100A200009F44AC0281B390B24303105D8F58A81D6
:100A30009B816115710589F1FB0193838283FE011E
:100A400011C0408151810281138148175907E0F09C
:100A50004817590799F4109761F012960C93129762
:100A600013961C933296CF01DF91CF911F910F9176
:100A700008950093270110932801F4CF2115310523
:100A800051F04217530738F0A901DB019A01BD016B
:100A9000DF01F801C1CFEF01F9CF909328018093D6
:100AA0002701CDCFFE01E20FF31F819391932250D6
:100AB000310939832883D7CF209125013091260130
:100AC000232B41F420910201309103013093260140
:100AD000209325012091000130910101211531055C
:100AE00041F42DB73EB74091040150910501241BFC
:100AF000350BE0912501F0912601E217F307A0F4F0
:100B00002E1B3F0B2817390778F0AC014E5F5F4F63
:100B10002417350748F04E0F5F1F5093260140936E
:100B20002501819391939FCFF0E0E0E09CCFCF939C
:100B3000DF930097E9F0FC01329713821282A091B3
:100B40002701B0912801ED0130E020E01097A1F4D9
:100B500020813181820F931F209125013091260140
:100B60002817390709F061C0F0932601E0932501A9
:100B7000DF91CF910895EA01CE17DF07E8F54A81AA
:100B80005B819E0141155105B1F7E901FB83EA83C1
:100B900049915991C40FD51FEC17FD0761F480816D
:100BA00091810296840F951FE90199838883828140
:100BB00093819B838A83F0E0E0E012968D919C9173
:100BC00013970097B9F52D913C911197CD0102969D
:100BD000820F931F20912501309126012817390794
:100BE00039F6309751F51092280110922701B093F1
:100BF0002601A0932501BCCFD383C28340815181BC
:100C0000840F951FC817D90761F44E5F5F4F888125
:100C10009981480F591F518340838A819B81938317
:100C200082832115310509F0B0CFF0932801E093BC
:100C300027019ECFFD01DC01C0CF13821282D7CFE6
:100C4000DC0101C06D9341505040E0F7089510E081
:100C5000CDE5D0E004C0FE010E94F5042196CE351A
:080C6000D107C9F7F894FFCF9A
:060C6800000029018000DC
:00000001FF
