:100000000C945E000C9486000C9486000C94860080
:100010000C9486000C9486000C9486000C94860048
:100020000C9486000C9486000C9486000C94860038
:100030000C9486000C9486000C9486000C94860028
:100040000C9471020C9486000C9486000C9486002B
:100050000C9486000C9486000C9486000C94860008
:100060000C9486000C9486000000000024002700F9
:100070002A0000000000250028002B0004040404CE
:100080000404040402020202020203030303030342
:10009000010204081020408001020408102001021F
:1000A00004081020000000080002010000030407FB
:1000B0000000000000000000B0030F0411241FBE68
:1000C000CFEFD8E0DEBFCDBF21E0A6E0B1E001C0B8
:1000D0001D92A932B207E1F711E0A0E0B1E0EEEF26
:1000E000FAE002C005900D92A630B107D9F710E0F2
:1000F000CDE5D0E004C02197FE010E944704CC3535
:10010000D107C9F70E94BB020C9472050C94000041
:1001100090E0FC01EC55FF4F2491FC01E057FF4FAC
:100120003491FC01E458FF4FE491EE23B9F022230F
:1001300039F02330F1F098F4213009F1223019F12F
:10014000F0E0EE0FFF1FEE58FF4FA591B4918FB76F
:10015000F894EC9130953E233C938FBF089527305F
:10016000A9F02830C9F0243059F7809180008F7DA4
:1001700003C0809180008F7780938000E1CF84B5A9
:100180008F7784BDDDCF84B58F7DFBCF8091B000AC
:100190008F778093B000D4CF8091B0008F7DF9CF5E
:1001A000E0911101F09112018E179F0798F530919F
:1001B0001701332361F0639FB0011124672F349F2F
:1001C000A0011124452F329F90011124232F30913B
:1001D0001D01E0911801F091190150911A01351398
:1001E0001AC0DC01AA0FBB1F8A0F9B1F8E0F9F1F17
:1001F000E0911A01E80FF92FF11D6083E0911B01D6
:10020000E80FF92FF11D408330911C01830F911DE0
:10021000FC0120830895880F991F880F991F8E0F66
:100220009F1FFC01E30FF11D1082E2CFCF93DF93FC
:1002300090E0FC01E057FF4F249184589F4FFC0150
:1002400084918823D1F090E0880F991FFC01E85930
:10025000FF4FA591B491FC01EE58FF4FC591D49189
:1002600061110EC09FB7F8948C91E22FE0958E2318
:100270008C932881E223E8839FBFDF91CF9108957B
:100280008FB7F894EC91E22BEC938FBFF6CF3FB78A
:10029000F89480910B0190910C01A0910D01B09107
:1002A0000E0126B5A89B05C02F3F19F00196A11D90
:1002B000B11D3FBFBA2FA92F982F8827BC01CD01B0
:1002C000620F711D811D911D42E0660F771F881F0F
:1002D000991F4A95D1F708950F931F93CF93DF93FA
:1002E000CDB7DEB729970FB6F894DEBF0FBECDBFEE
:1002F0008091180190911901892B09F47CC00E940A
:10030000470100911E0110911F01209120013091A1
:100310002101601771078207930740F460931E0163
:1003200070931F01809320019093210100911E0181
:1003300010911F012091200130912101601B710B50
:10034000820B930B6C32714081059105C0F2F894D9
:1003500080911301909114019A838983E09118018F
:10036000F0911901DF0111968081898790910F0129
:10037000E0912201F091230180912401992309F455
:1003800045C09081982B98879081809589238F8391
:100390008F818C8388E08B8358856F8149853B8171
:1003A0002C8189819A81508347FD252F3A9520839E
:1003B000262F39F0441F00C000006083000000C0F9
:1003C000F2CF38E04D9160830000019761F7F09320
:1003D0002301E093220149873B832C839A838983FD
:1003E00078940E94470160931E0170931F018093CF
:1003F00020019093210129960FB6F894DEBF0FBE1D
:10040000CDBFDF91CF911F910F9108959081982BCF
:1004100098879081809589238F838F818E8388E050
:100420008D8358856F8149853D812E8189819A818F
:10043000508347FD252F00C000C0208300C000C0AE
:1004400000C000C000C060830000262F3A9541F034
:10045000441F000000C000C000C000C000C0E8CFC2
:1004600038E04D9100C0608300C0019709F7F09318
:100470002301E093220149873D832E83AFCF8F92E2
:100480009F92AF92BF92CF92DF92EF92FF924B0179
:100490005C010E9447016B017C010E9447016C19BD
:1004A0007D098E099F09683E734081059105A8F377
:1004B00021E0821A9108A108B10888EEC80E83E0F5
:1004C000D81EE11CF11C81149104A104B10429F788
:1004D000FF90EF90DF90CF90BF90AF909F908F9064
:1004E00008951F920F920FB60F9211242F933F93EE
:1004F0008F939F93AF93BF938091070190910801D1
:10050000A0910901B0910A013091060123E0230F67
:100510002D3758F50196A11DB11D2093060180933A
:10052000070190930801A0930901B0930A018091FB
:100530000B0190910C01A0910D01B0910E0101965B
:10054000A11DB11D80930B0190930C01A0930D018F
:10055000B0930E01BF91AF919F918F913F912F91D9
:100560000F900FBE0F901F90189526E8230F02964C
:10057000A11DB11DD2CF789484B5826084BD84B5AD
:10058000816084BD85B5826085BD85B5816085BD8E
:1005900080916E00816080936E0010928100809146
:1005A00081008260809381008091810081608093CE
:1005B0008100809180008160809380008091B100F3
:1005C00084608093B1008091B00081608093B0001E
:1005D00080917A00846080937A0080917A008260B2
:1005E00080937A0080917A00816080937A00809174
:1005F0007A00806880937A001092C100CC24CA945B
:1006000082E3D82E03E010E090E0E92E90E0F92E8E
:1006100023E3B22E809115019091160197FD07C03A
:1006200061E00E941601809115010E94880081E01E
:100630008093100160911701633319F12091180123
:10064000309119016150C1F070E0C6010E941F0491
:10065000F9014091130150911401CF01821B930BBA
:100660008417950760F44081469FC001479F900D15
:10067000112490833196EDCF70E060E0E9CFB09225
:100680001701D0E0C0E0CE01B8010E94330400970A
:10069000A9F50E946C0120E040E060E0CE010E94DC
:1006A000D0006AE070E080E090E00E943F02219676
:1006B000C032D10541F7D0E0C0E0CE01B8010E94C0
:1006C00033040097B9F564E670E080E090E00E94A2
:1006D0003F0220E040E06FEFCE010E94D0000E9478
:1006E0006C012196C032D10541F70E946C01E114E2
:1006F000F10409F48FCF0E9400008CCF019769F4B8
:100700000E946C0120E040E060E0CE010E94D00039
:1007100064E170E080E090E0C8CF0E946C0120E0CE
:1007200040E060E0CE010E94D0006EE170E080E029
:1007300090E0BBCF019751F466E970E080E090E073
:100740000E943F0220E04FEF60E0C6CF68EC70E00F
:1007500080E090E00E943F0224E644E664E6BCCFDD
:10076000109210011092170110921E0110921F0199
:10077000109220011092210181E080931D0180934D
:100780001A0110921B0192E090931C0180930F01BB
:1007900080E690E090931401809313010E944D0431
:1007A0009093190180931801009781F120E6FC01D4
:1007B00011922A95E9F780E290E0909312018093DC
:1007C000110186E090E090931601809315018091CD
:1007D0001001882339F061E086E00E94160186E06E
:1007E0000E948800E2E8F0E0E491F0E0EE0FFF1FE5
:1007F000EE58FF4F859194919093230180932201AD
:10080000E6E9F0E0E491E0932401089510921401E8
:10081000109213011092120110921101D2CF809107
:100820001801909119010E94E9048091150190919D
:10083000160197FD03C060E00C9416010895AA1BF1
:10084000BB1B51E107C0AA1FBB1FA617B70710F0BB
:10085000A61BB70B881F991F5A95A9F780959095ED
:10086000BC01CD01089597FB072E16F4009407D024
:1008700077FD09D00E941F0407FC05D03EF4909537
:1008800081959F4F0895709561957F4F0895EE0F64
:10089000FF1F0590F491E02D09940F931F93CF93C0
:1008A000DF938230910510F482E090E0E09127011F
:1008B000F091280130E020E0B0E0A0E0309799F41A
:1008C0002115310509F44AC0281B390B24303105A4
:1008D000D8F58A819B816115710589F1FB019383AC
:1008E0008283FE0111C0408151810281138148172A
:1008F0005907E0F04817590799F4109761F01296DC
:100900000C93129713961C933296CF01DF91CF91DF
:100910001F910F9108950093270110932801F4CFA0
:100920002115310551F04217530738F0A901DB01B9
:100930009A01BD01DF01F801C1CFEF01F9CF90931A
:10094000280180932701CDCFFE01E20FF31F819391
:1009500091932250310939832883D7CF20912501E3
:1009600030912601232B41F42091020130910301A3
:10097000309326012093250120910001309101013F
:100980002115310541F42DB73EB740910401509136
:100990000501241B350BE0912501F0912601E2179A
:1009A000F307A0F42E1B3F0B2817390778F0AC0192
:1009B0004E5F5F4F2417350748F04E0F5F1F50936F
:1009C000260140932501819391939FCFF0E0E0E0D1
:1009D0009CCFCF93DF930097E9F0FC01329713820D
:1009E0001282A0912701B0912801ED0130E020E0B2
:1009F0001097A1F420813181820F931F209125014E
:100A0000309126012817390709F061C0F0932601BB
:100A1000E0932501DF91CF910895EA01CE17DF071A
:100A2000E8F54A815B819E0141155105B1F7E90165
:100A3000FB83EA8349915991C40FD51FEC17FD0739
:100A400061F4808191810296840F951FE901998359
:100A50008883828193819B838A83F0E0E0E0129611
:100A60008D919C9113970097B9F52D913C91119719
:100A7000CD010296820F931F20912501309126010E
:100A80002817390739F6309751F51092280110923E
:100A90002701B0932601A0932501BCCFD383C28345
:100AA00040815181840F951FC817D90761F44E5FAB
:100AB0005F4F88819981480F591F518340838A81F4
:100AC0009B81938382832115310509F0B0CFF09388
:100AD0002801E09327019ECFFD01DC01C0CF1382E6
:100AE0001282D7CF10E0CDE5D0E004C0FE010E9415
:0E0AF00047042196CE35D107C9F7F894FFCF01
:060AFE0000002901800048
:00000001FF
